:020000040800F2
:10000000881800202902000839060008B5050008F4
:100010003506000861040008DF0D0008000000003C
:10002000000000000000000000000000210800089F
:10003000D504000800000000B506000811090008FA
:10004000430200084302000843020008430200087C
:10005000430200084302000843020008430200086C
:10006000430200084302000843020008430200085C
:10007000430200084302000843020008430200084C
:10008000430200084302000843020008430200083C
:10009000430200084302000843020008430200082C
:1000A000430200084302000843020008430200081C
:1000B000E1090008E3090008E50900084302000817
:1000C00043020008430200084302000843020008FC
:1000D00043020008110C000843020008210C00082C
:1000E00043020008430200084302000843020008DC
:1000F00043020008430200084302000843020008CC
:100100004302000843020008E70900084302000810
:1001100043020008430200084302000843020008AB
:10012000430200084302000843020008430200089B
:10013000430200084302000843020008430200088B
:10014000430200084302000843020008430200087B
:10015000430200084302000843020008430200086B
:10016000430200084302000843020008430200085B
:10017000430200084302000843020008430200084B
:10018000430200084302000800F002F800F03CF8C7
:100190000AA090E8000C82448344AAF10107DA45E2
:1001A00001D100F031F8AFF2090EBAE80F0013F0F8
:1001B000010F18BFFB1A43F001031847D8240000B1
:1001C000F8240000103A24BF78C878C1FAD8520742
:1001D00024BF30C830C144BF04680C6070470000C1
:1001E0000023002400250026103A28BF78C1FBD840
:1001F000520728BF30C148BF0B6070471FB502F0DF
:10020000EFF91FBD10B510BD00F031F81146FFF732
:10021000F5FF01F005FA00F04FF803B4FFF7F2FF25
:1002200003BC00F057F80000094880470948004720
:10023000FEE7FEE7FEE7FEE7FEE7FEE7FEE7FEE796
:10024000FEE7FEE704480549054A064B70470000F3
:100250007909000889010008881200208818002008
:100260008814002088140020704770477047754636
:1002700000F02CF8AE4605006946534620F0070012
:10028000854618B020B5FFF7DDFFBDE820404FF0F0
:1002900000064FF000074FF000084FF0000B21F070
:1002A0000701AC46ACE8C009ACE8C009ACE8C0093D
:1002B000ACE8C0098D46704710B50446AFF3008026
:1002C0002046BDE81040FFF7A8BF00000048704777
:1002D0002412002001491820ABBEFEE726000200D0
:1002E000704721B1826842F00102826003E08268B7
:1002F00022F00102826070470021084A1168084A12
:100300001140D0E900231A4383681A43C3681A4393
:100310001143044AC2F8041370470000042301404B
:10032000E030FCFF0020014021B1826842F480727D
:10033000826003E0826822F480728260704721B19B
:10034000826842F40072826003E0826822F40072E4
:100350008260704730B50246002000235068104C80
:1003600020400D790C6844EA0524204350609068D1
:100370000C4C2040D1E903542C438D682C434D791B
:1003800044EA450420439060D06A20F470000C7D5C
:10039000641EE4B2234340EA0350D06230BD000043
:1003A000FFFEFFFCFDF7FFC0F0B504460D46002040
:1003B0000021092D11DDE068A5F10A0606EB4607CC
:1003C000072606FA07F18843A5F10A0606EB46065A
:1003D00003FA06F10843E0600CE0206905EB4507ED
:1003E000072606FA07F1884305EB450603FA06F1EE
:1003F00008432061072A0FDA606B561E06EB86075A
:100400001F2606FA07F18843561E06EB860605FAF4
:1004100006F10843606322E00D2A0FDA206BD61F35
:1004200006EB86071F2606FA07F18843D61F06EB60
:10043000860605FA06F10843206310E0E06AA2F19F
:100440000D0606EB86071F2606FA07F18843A2F180
:100450000D0606EB860605FA06F10843E062F0BDDC
:1004600000BFFEE721B1026842F00102026003E032
:10047000026822F0010202607047000010B50022FD
:100480000268134B1A40CC680B6823434C69234322
:100490008C692343CC6923430C6A23434C6A23436E
:1004A0008C6A23434C6B23438C6B23431A430260B7
:1004B000426922F00702D1E90B3423431A43426117
:1004C0000B6943604B6883608B68C36010BD00009C
:1004D0003F801CF07047F0B50A460021002300243D
:1004E00000BF3DE0012505FA01F3156805EA0304A4
:1004F0009C4234D105684F000326BE40B5430560D9
:1005000015794E00B5400668354305601579012D13
:1005100002D01579022D16D185684F000326BE4002
:10052000B543856055794E00B54086683543856092
:10053000456801268E40B5434560456896798E40F2
:10054000B6B235434560C5684F000326BE40B5438B
:10055000C560D5794E00B540C6683543C560491CB5
:100560001029BFD3F0BDF0B5002300244D07ED0ED8
:1005700002FA05F3CE1000F1200555F826504E077B
:10058000F70E0F26BE40B543CF1000F1200646F807
:100590002750CE1000F1200555F8265045EA0304F7
:1005A000CE1000F1200545F82640F0BD418370478C
:1005B0000183704700BFFEE702480069012121EA7C
:1005C000901070470010024002480069012121EAA2
:1005D000501070470010024002480069012121EAD2
:1005E00010107047001002400146002031B101296F
:1005F00009D002290CD0032914D10EE00B4A12684D
:10060000C2F380300FE0094A1268C2F340300AE0BA
:10061000074A1269C2F3401005E0054A1269C2F3A5
:10062000C00000E000BF00BF70470000101402408F
:100630000010024000BFFEE77047000070B50021C7
:1006400000230F22C4781CB3174C246804F4E06420
:10065000C4F5E064C4F30721C1F10404E3B20A4124
:1006600044789C40E1B28478144021430C07210E69
:100670000E4C05786155047804F01F050124AC4048
:1006800005786D11AD0005F1E025C5F8004109E0E0
:10069000047804F01F050124AC40054D067876115E
:1006A00045F8264070BD00000CED00E000E400E0DD
:1006B00080E100E07047000029B1064A1268024359
:1006C000044B1A6004E0034A12688243014B1A602B
:1006D000704700003038024029B1064A12680243D0
:1006E000044B1A6004E0034A12688243014B1A600B
:1006F000704700004038024029B1064A12680243A0
:10070000044B1A6004E0034A12688243014B1A60EA
:10071000704700004438024029B1064A126802437B
:10072000044B1A6004E0034A12688243014B1A60CA
:100730007047000024380240F0B500210022002458
:10074000022500260223324F3F6807F00C0121B139
:10075000042905D0082937D105E02E4F076036E07F
:100760002D4F076033E02A4F3F1F3F68C7F3805685
:10077000274F3F1F3F6807F03F036EB1264FB7FB7F
:10078000F3F7DFF88CC0ACF1040CDCF800C0CCF35C
:10079000881C07FB0CF40CE01E4FB7FBF3F7DFF8E7
:1007A00070C0ACF1040CDCF800C0CCF3881C07FB73
:1007B0000CF4174F3F1F3F68C7F301477F1C7D00B4
:1007C000B4FBF5F7076002E0124F076000BF00BFFF
:1007D0000F4F3F6807F0F0010909104F7A5C076876
:1007E000D74047600A4F3F6807F4E051890A0B4F32
:1007F0007A5C4768D7408760054F3F6807F46041DF
:10080000490B064F7A5C4768D740C760F0BD0000CF
:10081000083802400024F40000127A00140000207E
:10082000704700000CB5002001900090344800682B
:1008300040F480303249086000BF3148006800F45D
:10084000003000900198401C0190009818B9019860
:10085000B0F5A04FF1D12A48006800F4003010B183
:100860000120009001E0002000900098012846D16E
:1008700023484030006840F08050214940310860F2
:100880002048006840F440401E4908601C48083079
:1008900000681B49083108600846006840F40040C1
:1008A00008600846006840F4A05008601648091F18
:1008B0000860081F006840F08070091F086000BFD2
:1008C0000F48006800F000700028F9D040F2057071
:1008D0000E4908600A480830006820F00300084903
:1008E000083108600846006840F00200086000BF58
:1008F00003480830006800F00C000828F8D10CBD4F
:10090000003802400070004008544007003C02409C
:1009100010B500F001F810BD10B5002412480068B1
:1009200040B111480068401E0F49086010B901200D
:100930000E4908700E480068401C0D4908600846C2
:1009400000686FF00041884202D100200849086029
:10095000002406E0074901EB041000F0A1FC601C34
:10096000C4B2042CF6DB10BD280000202C000020AF
:1009700030000020AC00002010B51548006840F49D
:100980007000134908601348006840F001001149E5
:10099000086000200F49083108600E4800680E49C1
:1009A00008400C4908600D48091D0860081F0068D0
:1009B00020F48020091F0860002006490C310860DF
:1009C000FFF730FF4FF0006001498039086010BD2B
:1009D00088ED00E000380240FFFFF6FE10300024F2
:1009E000704770477047704721B1028842F001029A
:1009F000028004E002884FF6FE731A4002807047BE
:100A000031B1B0F8442042F40042A0F8442005E09F
:100A1000B0F84420C2F30E02A0F844207047000052
:100A200070B5002400220023058C4FF6FE76354079
:100A30000584028C8388048B4FF68F752C40B51E7D
:100A40002C400D882C43751E2A408D892A434D88E1
:100A50002A43104DA84202D00F4DA84213D14FF6A1
:100A6000F7752A40CD892A434FF6FB752A408D88B9
:100A70002A434FF6FF652B404FF6FF552B400D8A5A
:100A80002B434D8A2B43838004838D684563028406
:100A900070BD000000000140000401400A46002132
:100AA000018B4FF6F7731940114301837047000023
:100AB00070B5002400220023058C4FF6EF763540F8
:100AC0000584028C8388048B48F6FF752C404FF612
:100AD000FF452C400D884FF6FF7606EA05252C438E
:100AE0004FF6DF752A408D8906EA05152A434D88A1
:100AF00006EA05152A43154DA84202D0144DA84216
:100B00001DD14FF67F752A40CD894FF6FF7606EA54
:100B100005152A434FF6BF752A408D8806EA05154C
:100B20002A434FF6FF352B404FF2FF752B400D8ABD
:100B300006EA85052B434D8A06EA85052B4383800B
:100B400004838D688563028470BD0000000001404D
:100B5000000401400A460021018B4FF2FF73194047
:100B60004FF6FF7303EA0223194301837047416381
:100B7000704781637047000000220288184B98423A
:100B80000ED0184B98420BD0B0F1804F08D0164BC6
:100B9000984205D0154B984202D0154B984204D18B
:100BA0004FF68F731A404B881A43124B984207D066
:100BB000114B984204D04FF6FF431A400B891A4359
:100BC00002804B68C3620B880385054B984202D0B4
:100BD000044B984201D18B7A0386012383827047AC
:100BE00000000140000401400004004000080040F3
:100BF000000C004000100040001400404FF0FF3196
:100C000041600021018001814180817270470000B4
:100C100010B5024800F038FC10BD0000EC000020C8
:100C200010B5024800F030FC10BD0000140900208F
:100C300001F40072B2F5007F00D100BFCA43028008
:100C4000704721B1828942F40052828104E0828996
:100C50004DF6FF731A408281704770B5024600243A
:100C600000230025002040F66A16B14200D100BFE3
:100C7000C1F3421501F01F03012606FA03F3012D0B
:100C800002D19689334006E0022D02D1168A334004
:100C900001E0968A33400C12012606FA04F4168805
:100CA000344013B10CB1012000E0002070BDF0B55C
:100CB0000346002400260025002040F66A17B942AA
:100CC00000D100BF1846C1F3421401F01F060127EE
:100CD00007FA06F5012C01D10C3004E0022C01D1F9
:100CE000103000E014301AB107682F43076002E0AB
:100CF0000768AF430760F0BD2DE9FF4705460E4684
:100D00000024A14600BFA046B08900B100BF2C8AD4
:100D100024F44054F08804432C82AC8941F20C60E6
:100D20008443B08831890843718908430443AC8106
:100D3000AC8A24F44074B0890443AC826846FFF75F
:100D4000FBFC2048854202D01F48854202D1DDF8D5
:100D50000C9001E0DDF80890A88900F4004040B153
:100D600009EBC90000EB091031684900B0FBF1F74D
:100D700007E009EBC90000EB091031688900B0FBFE
:100D8000F1F76420B7FBF0F004012009642101FBB6
:100D90001078A88900F4004040B1322000EBC80070
:100DA000B0FBF1F000F00700044308E0322000EB54
:100DB00008106421B0FBF1F000F00F0004432C8117
:100DC000BDE8FF87001001400014014001468888FB
:100DD000C0F308007047C1F308028280704700BF6B
:100DE000FEE780F31088704710B500F00BFA00F0B2
:100DF00051F800F027F900F097FA10BD70B50446DD
:100E0000204600F005F805460121FFF755FC70BDAE
:100E100001460020164A914201D1012026E0154AE0
:100E2000914201D1022021E0134A914201D10420D4
:100E30001CE0124A914201D1082017E0104A914269
:100E400001D1102012E00F4A914201D120200DE083
:100E50000D4A914201D1802008E00C4A914201D113
:100E6000881503E00A4A914200D1402070470000F3
:100E7000000002400004024000080240000C024052
:100E80000010024000140240001C024000200240FA
:100E90000018024010B500F09BF800F063F810BD98
:100EA00070B505462E4800EB0514206880470028E1
:100EB0003AD02079012802DA012020714EE0207911
:100EC000022803DA2079401C207147E0A07A38B963
:100ED0000120A07205EB4501491CC8B200F038F9A9
:100EE000208900280DDDE088401C80B2E080218947
:100EF000884233D105EB4501C91CC8B200F028F97E
:100F00002CE0E07A002829DD207B401CC0B2207351
:100F1000E17A884222DB0020207305EB4501491C61
:100F2000C8B200F015F919E02079012802DD01208E
:100F3000207110E0207918B12079401E20710AE05C
:100F4000A07A012807D10020A07205EB4501891C79
:100F5000C8B200F0FDF800202073E08070BD0000F2
:100F60007C00002000200021144A9172D1720121DE
:100F7000117300BF17E00A21114A02EB0012118120
:100F800000210F4A02EB001211710D4A02EB001210
:100F900091720B4A02EB00121173094A02EB001224
:100FA000D172411CC8B20328E5DB0649044A11602E
:100FB0000549116105491162704700006C0000206D
:100FC0007C000020D9050008C9050008B905000803
:100FD0001CB501211020FFF76FFB00208DF80400E5
:100FE0008DF8060001208DF8070003208DF805001C
:100FF0001020009069460848FFF76DFA2020009005
:1010000069460548FFF767FA4020009069460248A4
:10101000FFF761FA1CBD00000010024010B500246B
:101020000748007B08B900BFFEE7002404E0204623
:10103000FFF736FF601CC4B2032CF8DB10BD0000C4
:101040006C00002010B500F007F80120014908707D
:1010500010BD0000240000201CB51E48FFF7CEFE86
:101060001C48FFF7CBFE1C48FFF7C8FE802000900D
:1010700001208DF8040000208DF8060003208DF873
:10108000050001208DF8070069461248FFF723FA92
:101090004FF48070009001208DF8070069460D48DC
:1010A000FFF719FA0220009001208DF80700694629
:1010B0000948FFF710FA80210648FFF779FA4FF444
:1010C00080710448FFF774FA02210348FFF770FAB1
:1010D0001CBD0000001002400018024019490978A8
:1010E00001292DD120B1012809D0022815D10DE008
:1010F0001549496981F08001134A51611FE0124985
:10110000496981F48071104A516118E00F490968FA
:1011100081F002010D4A116011E00B49496981F02B
:101120008001094A51611146496981F48071516118
:101130000649096881F00201044A116000BF00BF3E
:1011400070470000240000200010024014180240E4
:101150000649C97A054A50541146C97A491CC9B290
:10116000D1720A2901DB0021D17270476C00002086
:1011700010B5044604B910BD012C00D10224012091
:10118000FFF72FFE08480460002008490870FFF7A9
:1011900028FE04E005480078012800D100E0F9E7C6
:1011A00000BF00BFE7E70000280000202C0000205F
:1011B000F0B5034600224FF0E02675690F4E366801
:1011C0000F4FB6FBF7F606FB03F400BF4FF0E02627
:1011D000B16910E04FF0E026B06988420BD0884238
:1011E00002D20E1A324402E02E1A0E443244014654
:1011F000A24200D300E0EDE700BFF0BD00000020F8
:1012000040420F0070B5002000BF16E00021204AC8
:1012100002EB001251601E4A02EB001291601C4A60
:1012200002EB001251701A4A02EB00121170184AB8
:1012300002EB0012D160411CC8B20428E6DB15495C
:1012400009684FF47A73B1FBF3F2511EB1F1807F5C
:1012500000D31BE0511E4FF0E023596159170F23B3
:10126000002907DA1C07260E0B4C01F00F052D1F75
:10127000665503E01C07250E084C655400BF00218D
:101280004FF0E02399610721196100BF70BD000094
:10129000AC0000200000002018ED00E000E400E0B9
:1012A00010B50446606870B16068401E606050B957
:1012B000012060702078012801D1A0686060E0689A
:1012C00008B1E068804710BD0246044B03EB0213EF
:1012D000D868024B03EB0213D9607047AC000020C2
:1012E00070B504460D461646042C02DD4FF0FF3063
:1012F00070BD0120FFF775FD0A4800EB0410456042
:101300000020084901EB04114870064800EB041066
:101310000670044800EB041085600020FFF761FDB3
:101320000020E5E7AC00002010B500F041F900F026
:1013300003F800F009F910BD00B587B00121084697
:10134000FFF7BAF901211020FFF7D6F9072209218A
:101350004948FFF708F907220A214748FFF703F930
:1013600000208DF81A0001208DF81B0002208DF856
:1013700018000002059002208DF8190005A93E48CA
:10138000FFF7A9F802208DF818004002059005A982
:101390003948FFF7A0F84FF4165001900020ADF83F
:1013A0000800ADF80A00ADF80C00ADF810000C20F4
:1013B000ADF80E0001A93148FFF79EFC012240F272
:1013C00025512E48FFF773FC01212C48FFF739FC0B
:1013D00040212A48FFF72CFC01210220FFF76CF97D
:1013E00001218804FFF778F907220A212448FFF732
:1013F000BAF807220B212248FFF7B5F800208DF834
:101400001A0001208DF81B0002208DF81800400200
:10141000059002208DF8190005A91948FFF75BF81F
:1014200002208DF818008002059005A91448FFF7E6
:1014300052F84FF4E13001900020ADF80800ADF80B
:101440000A00ADF80C00ADF810000C20ADF80E004D
:1014500001A90C48FFF750FC012240F22551094830
:10146000FFF725FC01210748FFF7EBFB402105486A
:10147000FFF7DEFB07B000BD000002400010014096
:10148000000402400048004070B5044640F2255177
:101490002068FFF7E2FB012807D12068FFF796FCE0
:1014A000C5B22946204600F06FF840F22771206847
:1014B000FFF7D3FB08B3A08A60B9002240F227717E
:1014C0002068FFF7F4FB012240F226612068FFF755
:1014D000EEFB38E0638A6268D15C2068FFF77BFC32
:1014E000608A401C80B26082A189884201DB0020B2
:1014F0006082A08A401EA08225E040F2266120681A
:10150000FFF7ABFBF8B1A08A58B9002240F2266180
:101510002068FFF7CCFB206AA8B10020216A884729
:1015200011E0638A6268D15C2068FFF754FC608A2E
:10153000401C80B26082A189884201DB0020608269
:10154000A08A401EA08270BD08B525208DF800003D
:101550000D208DF8010000208DF8020001208DF88B
:1015600003006846FFF76AF827208DF800000D2079
:101570008DF8010000208DF8020001208DF8030095
:101580006846FFF75BF808BDC38A8268D154C28AF7
:10159000521C92B2C282C3899A4201DB0022C282EB
:1015A000428BC3899A4202DA428B521C42837047B3
:1015B00013481449086014484860144888604FF480
:1015C0008060C88188810020C8820883488388821F
:1015D0004862C86108620E480E4908600E484860BB
:1015E0000E4888604FF48060C88188810020C882DE
:1015F0000883488388824862C86108627047000097
:1016000000100140EC00002014010020140500200F
:1016100000480040140900203C0900203C0D002037
:10162000FFF7E2FB012214211046FFF759FE0A4999
:101630000120FFF749FE012264210220FFF750FE3E
:1016400006490220FFF740FE00F00AF800F05EFFB6
:1016500001E000F00FF8FCE71D100008E524000889
:1016600010B500F001FF00F0CBF900F065FB00F0D1
:10167000F5F910BD10B500F011F80648407D38B9F5
:101680000548008A5021B1EBA00F01DA00F08AFB77
:1016900010BD00003C1100208011002010B5C4488E
:1016A000008AC821B1EBA00F35DD0020FEF79CFFBA
:1016B00000283FD0BF48407D00283BD10320FFF7E2
:1016C0000DFDBD480078012807D0BC480068401CCB
:1016D000BA4908600120B84908700220B549487528
:1016E0000846407801281BD1B148008A5021B1EB4F
:1016F000A00F11DD0120AF498870C8700870C820A4
:10170000486064208860800000F0E0F9AB48006821
:10171000401EAA4908604AE1022000F08BFA46E127
:10172000A34840896E21B1EB201FF4DD022000F0B8
:1017300081FA3CE10120FEF757FF00283FD09D4889
:10174000407D00283BD10320FFF7C8FC9A48007871
:10175000012807D099480068401C9849086001207A
:101760009549087003209349487508464078012838
:101770001BD18F48008A5021B1EBA00F11DD012051
:101780008C498870C870087064204860C8208860E0
:10179000400000F09BF989480068401E87490860B6
:1017A00005E1032000F046FA01E1814840896E21FD
:1017B000B1EB201FAFDD032000F03CFAF7E0022080
:1017C000FEF712FF88B37B48407D70BB0320FFF714
:1017D00085FC79480078012807D078480068401CCB
:1017E00076490860012074490870724840780128E1
:1017F0001CD16F48008A5021B1EBA00F11DD0020F1
:101800006C498870C870087064204860C82088607F
:10181000400000F05BF969480068401E67490860B5
:10182000C5E0042000F006FAC1E009E06048008845
:101830006E21B1EB201FB3DD042000F0FBF9B6E010
:101840000320FEF7D1FE80B35A48407D68BB0320D9
:10185000FFF744FC58480078012807D05748006833
:10186000401C564908600120534908700520514921
:1018700048750846407801281CD14D48008A5021FF
:10188000B1EBA00F12DD00204A498870C8700870C3
:1018900064204860C8208860400000F017F947487D
:1018A0000068401E4549086081E00DE0052000F019
:1018B000C1F97CE03E4800886E21B1EB201F76DD47
:1018C000052000F0B7F972E03948008A5021B1EBE9
:1018D000A00F15DD364840896E21B1EB201F01DADB
:1018E000012000E00020002861D0314800886E21EE
:1018F000B1EB201F01DA012000E00020002856D0C3
:101900002C4800782B49887008460078C8702B480E
:10191000007800F0010020B9C8204860A02088604D
:1019200004E0A02023494860C82088602048008A3D
:101930005A21B1EBA00F2BDD2048007800F0010008
:1019400028B98C201B4948606420886004E064202A
:10195000184948608C20886016484078012817D1C3
:10196000134840896E21B1EB201F01DA012000E00D
:10197000002048B90E4800886E21B1EB201F01DA23
:10198000012000E0002018B150200A49486088601A
:10199000002000F09BF80020064948750448008AA2
:1019A0006E21B1EBA00F02DA00200349087010BDD0
:1019B000801100203C110020510000205400002024
:1019C00000200B4909680143C8B20A49D1F8341212
:1019D00040EA4101C8B20849096840EA8101C8B239
:1019E0000649D1F8141240EAC101C8B2704700009C
:1019F0002C824142008041420C024342000043429B
:101A00001CB501214820FEF757FE00208DF8040088
:101A10002820009002208DF8070003208DF8050093
:101A200069460C48FEF757FD4FF428500090694670
:101A30000948FEF750FD4FF400710748FEF7B8FD66
:101A400028210448FEF7B2FD4FF420510248FEF76A
:101A5000ADFD1CBD00180240000C024010B500F0A6
:101A600005F800F059F800F0B1F810BD1CB50121DF
:101A70001220FEF721FE4FF44070009001208DF8F7
:101A8000040000208DF8060001208DF807000320D7
:101A90008DF8050069460B48FEF71DFD03200090F8
:101AA00001208DF8040000208DF8060001208DF83B
:101AB000070003208DF8050069460348FEF70BFD7B
:101AC0001CBD0000000402400010024010B5044696
:101AD00000F0D0FC00210E48FFF74BF86420FFF720
:101AE00067FB0C4841680A48FFF743F800210848A3
:101AF000FFF73DF86420FFF75BFB06488168044868
:101B0000FFF735F8002C02DD2046FFF731FB10BD52
:101B1000000800403C11002000B58BB001210220DC
:101B2000FEF7CAFD01210420FEF7D6FD02220621A0
:101B30002448FEF718FD022207212248FEF713FD74
:101B4000C020099002208DF8280000208DF82A007E
:101B500001208DF82B0003208DF8290009A91948D0
:101B6000FEF7B9FC0020ADF82000ADF81A0040F2F5
:101B7000E73007900520ADF8180006A91248FEF7D7
:101B8000FBFF7020ADF804000220ADF8100001202A
:101B9000ADF806003220039001A90B48FEF740FF84
:101BA00001A90948FEF784FF08210748FEF776FFE0
:101BB00008210548FEF7CEFF01210348FEF714FF78
:101BC0000BB000BD000402400008004010B5002426
:101BD0000020174908708870C870486088600875D0
:101BE00048750873FFF7ECFE0446012C02D0022C66
:101BF00008D103E001200E49487007E002200C499B
:101C0000487003E001200A49487000BF00BF08483F
:101C10004078012803D1C8200549086107E004483D
:101C20004078022803D14FF496700149086110BD35
:101C30003C11002010B50446022C06D0032C20D005
:101C4000042C3AD0052C71D153E001203949087099
:101C50008870C87008464078022806D1782048600D
:101C600088606420FFF732FF0AE03248407801289C
:101C700006D16E202F49486088606420FFF726FF58
:101C800055E001202B4908708870C87008464078DC
:101C9000022806D17820486088606420FFF716FF8C
:101CA0000AE024484078012806D16E202149486086
:101CB00088606420FFF70AFF39E000201D490870A2
:101CC0008870C87008464078022806D1782048609D
:101CD00088606420FFF7FAFE0AE016484078012881
:101CE00006D16E201349486088606420FFF7EEFE3D
:101CF0001DE000200F4908708870C87008464078C1
:101D0000022806D17820486088606420FFF7DEFE54
:101D10000AE008484078012806D16E20054948604D
:101D200088606420FFF7D2FE01E0FFE700BF00BF3C
:101D300010BD00003C11002000B500220020184911
:101D400008708870C87048608860087548750873A6
:101D500064208883C883FFF733FE0246012A02D03D
:101D6000022A08D103E001200D49487007E0022053
:101D70000B49487003E001200949487000BF00BFCB
:101D800007484078012803D196200549086106E0FC
:101D900003484078022802D1C8200149086100BDEB
:101DA0003C11002010B5DC4840896E21B1EB201FAA
:101DB00001DA012000E0002000287AD00020D74975
:101DC00008708870C87008464078012828D1D24829
:101DD000008AB421B1EBA00F04DB6420CF49486036
:101DE000886006E0CD480069CC4948600846006933
:101DF0008860C948008AC821B1EBA00F54DDC748EC
:101E0000007810B101280AD104E00121022000F07D
:101E1000B7FB04E00121042000F0B2FB00BF43E067
:101E2000BD4800888221B1EB201F10DABB48007842
:101E300010B101280AD104E00121022000F0A0FB2A
:101E400004E00121042000F09BFB00BF00BF25E05F
:101E50000120B2490875B2480068401CB0490860CA
:101E6000084600680A2816D9AC484068B0F5617F7A
:101E700004D2AA4840686430A8494860A7488068EE
:101E8000B0F5617F04D2A54880686430A3498860BA
:101E90000020A34908606420FFF718FE9E4840898F
:101EA0005A21B1EB201FD3DBC820FFF70FFE32E130
:101EB000FFE7994800886E21B1EB201F01DA01206D
:101EC00000E0002000287CD0012094490870887030
:101ED000C87008464078012828D18F48008AB4216C
:101EE000B1EBA00F04DB64208C494860886006E0F9
:101EF0008A480069894948600846006988608648C0
:101F0000008AC821B1EBA00F59DD8448007810B1D8
:101F100001280AD104E00121022000F031FB04E095
:101F20000121042000F02CFB00BF48E07A48008823
:101F30008221B1EB201F10DA7848007810B1012817
:101F40000AD104E00121022000F01AFB04E0012183
:101F5000042000F015FB00BF00BF2AE070480068B5
:101F6000401C6F49086001206C4908756C48006886
:101F70000A281BD9084640686430486008468068D3
:101F80006430886008464068B0F5617F02D24FF443
:101F90006170486061488068B0F5617F03D24FF49A
:101FA00061705E49886000205D4908606420FFF729
:101FB0008DFD594800885A21B1EB201FCEDBC82087
:101FC00000E002E0FFF782FDA5E0534800896E21A2
:101FD000B1EB201F01DA012000E0002070B10020E9
:101FE0004E490870012088700020C8704FF4967028
:101FF000486088606420FFF769FD8CE0464880896E
:102000006E21B1EB201F01DA012000E0002068B151
:1020100000204249087088700120C8704FF4B470E5
:10202000486088603C20FFF751FD74E03A48C08862
:102030006E21B1EB201F01DA012000E0002070B119
:10204000012036490870002088700120C8704FF4C4
:10205000B470486088603C20FFF738FD5BE02E4894
:1020600040886E21B1EB201F01DA012000E0002042
:1020700068B101202949087088700020C8704FF4A9
:10208000B470486088603C20FFF720FD43E02248A0
:1020900080886E21B1EB201F01DA012000E00020D2
:1020A00070B100201D490870012088700020C870A0
:1020B0004FF4C870486088609620FFF707FD2AE05B
:1020C0001548C0896E21B1EB201F01DA012000E024
:1020D000002070B101201149087000208870012093
:1020E000C8704FF4C870486088606420FFF7EEFC49
:1020F00011E000200A490860084908750846007880
:10210000C870887000F0B6F90020044908730121F6
:10211000084600F035FA10BD801100203C11002067
:102120006000002000B58BB001210802FEF7E4FA40
:10213000002001904FF48030029000200490039022
:1021400001A8FEF7D9F801210802FEF7E5FA0021FF
:102150004FF48070FEF7E0FA0020059001208DF822
:10216000180000208DF8190009904FF0805007905A
:102170000020089009208DF8280005A92348FEF7C3
:10218000E9F80723012200212048FEF70DF9072373
:10219000022201211D48FEF707F90723032202212D
:1021A0001A48FEF701F90723042203211748FEF716
:1021B000FBF80723052204211448FEF7F5F807234E
:1021C000062205211148FEF7EFF807231A460621DB
:1021D0000E48FEF7E9F80723082219460B48FEF7D8
:1021E000E3F8002309220E210848FEF7DDF801215B
:1021F0000648FEF7A4F801210448FEF795F80121EE
:102200000248FEF76EF80BB000BD00000020014050
:1022100000B58FB001218805FEF74EFA002000902E
:1022200009200490002003900B9001200C9010488E
:10223000029000200D904FF400500890C0100690BE
:10224000801009900B48019000200E904FF4003050
:102250000A90801107900020059069460648FEF715
:102260000DF901210448FEF7FDF80FB000BD000094
:10227000801100204C200140106402401CB5214810
:10228000FEF7BCFD2048FEF7B9FD03208DF80400E1
:1022900000208DF807001020009069461948FEF7CD
:1022A0001AF92020009069461648FEF714F94020DC
:1022B000009069461348FEF70EF9802000906946A9
:1022C0001048FEF708F90420009069460D48FEF713
:1022D00002F90820009069460A48FEF7FCF8012040
:1022E000009069460748FEF7F6F80220009069461C
:1022F0000448FEF7F0F81020009069460248FEF707
:10230000EAF81CBD000002400008024000B589B098
:1023100001210846FEF7F0F900212648FEF764FB8C
:1023200006A8FEF76BFC0020ADF82000ADF81A00FF
:1023300021482249097850F831002149B1FBF0F0D9
:10234000401E07901C481D49097800EBC100808899
:10235000401E80B2ADF8180000208DF8220006A9BA
:102360001448FEF709FC6020ADF804000120ADF828
:1023700006000220ADF8100003210798B0FBF1F031
:1023800003900420ADF808000020ADF81200ADF86D
:102390001400ADF8160001A90648FEF741FB012123
:1023A0000448FEF721FB01210248FEF729FB09B092
:1023B00000BD000000000140EC2500086A0000207C
:1023C000007A030A1CB52148FEF718FD1F48FEF7E6
:1023D00015FD1F48FEF712FD1D48FEF70FFD0020FA
:1023E0008DF8040001208DF8070003208DF805000A
:1023F0004FF48040009069461448FEF76CF84FF4A3
:1024000080411248FEF7D4F84FF40050009069461E
:102410000E48FEF760F84FF400510C48FEF7C8F87C
:102420002020009069460A48FEF755F82021084808
:10243000FEF7BEF80820009069460548FEF74BF805
:1024400008210348FEF7B4F81CBD00000014024048
:102450000010024010B5FFF711FFFFF763FEFFF712
:1024600055FFFFF7D5FE10BD10B5FFF7F3FFFFF7DF
:10247000A9FF10BD1848807810B1012810D107E0DD
:1024800000201649086001201549C1F8840207E0C0
:1024900001201249086000201149C1F8840200BFE0
:1024A00000BF0D48C07810B1012812D108E001200A
:1024B0000A49091F086000200949C1F8800208E0A4
:1024C00000200649091F086001200549C1F8800263
:1024D00000BF00BF704700003C110020A4824042B2
:1024E0000000424210B508484078012803D100207E
:1024F000FEF7F4FD06E004484078022802D10120EE
:10250000FEF7ECFD10BD00003C11002010B50120CD
:10251000174908601749C1F880020121002000F026
:102520002FF805E00420FEF7D9FD3220FEF720FE4B
:10253000114880888221B1EB201FF3DC0E48C0894E
:10254000B1EB201FEEDC4FF4AA700C4948604FF449
:102550008C7088604FF44870FFF7B8FA4FF49670AB
:10256000FFF7B4FA0121084600F00AF810BD000098
:10257000A082404200004242801100203C11002015
:1025800070B505460C46552008494870087005206E
:1025900088700620C870084605714C712012887139
:1025A0000721024800F004F870BD000092110020DD
:1025B00070B504460D460BE000BF0848008800F0E7
:1025C00040000028F9D014F8011B0448FEF703FC72
:1025D000281EA5F10101CDB2EED170BD0010014061
:1025E0004FF04070E1EE100A7047000080B92A00F9
:1025F0000100000080841E000100000040420F0026
:102600000100000020A1070001000000400D0300B0
:1026100001000000A08601000100000050C300007E
:1026200001000000204E0000010000001027000003
:10263000010000008813000001000000A04100001C
:1026400005000000A04100000A000000A0410000B9
:1026500014000000A041000032000000A041000072
:1026600064000000A0410000C8000000A04100007C
:10267000F4010000A0410000E8030000A0410000B8
:10268000D0070000A041000088130000A041000016
:1026900010270000B4260008000000206C00000095
:1026A000C4010008202700086C0000201C1800004E
:1026B000E0010008007A030A0000000000000000AA
:1026C00001020304060708090000000001020304D8
:1026D00001020304060708090000000000000000D2
:1026E00000000000000000000000000000000000EA
:1026F00000000000000000000000000000000000DA
:1027000000000000000000000000000000000000C9
:1027100000000000000000000000000000000300B6
:040000050800018965
:00000001FF
