:020000040800F2
:1000000068100020290200083D060008B905000814
:100010003906000865040008D30D00080000000040
:10002000000000000000000000000000250800089B
:10003000D904000800000000B906000815090008EE
:10004000430200084302000843020008430200087C
:10005000430200084302000843020008430200086C
:10006000430200084302000843020008430200085C
:10007000430200084302000843020008430200084C
:10008000430200084302000843020008430200083C
:10009000430200084302000843020008430200082C
:1000A000430200084302000843020008430200081C
:1000B000E5090008E7090008E9090008430200080B
:1000C00043020008430200084302000843020008FC
:1000D00043020008150C0008430200084302000810
:1000E00043020008430200084302000843020008DC
:1000F00043020008430200084302000843020008CC
:100100004302000843020008EB090008430200080C
:1001100043020008430200084302000843020008AB
:10012000430200084302000843020008430200089B
:10013000430200084302000843020008430200088B
:10014000430200084302000843020008430200087B
:10015000430200084302000843020008430200086B
:10016000430200084302000843020008430200085B
:10017000430200084302000843020008430200084B
:10018000430200084302000800F002F800F03CF8C7
:100190000AA090E8000C82448344AAF10107DA45E2
:1001A00001D100F031F8AFF2090EBAE80F0013F0F8
:1001B000010F18BFFB1A43F001031847502100003C
:1001C00070210000103A24BF78C878C1FAD85207CD
:1001D00024BF30C830C144BF04680C6070470000C1
:1001E0000023002400250026103A28BF78C1FBD840
:1001F000520728BF30C148BF0B6070471FB502F0DF
:100200002BF81FBD10B510BD00F031F81146FFF7F7
:10021000F5FF01F021F900F04FF803B4FFF7F2FF0A
:1002200003BC00F059F8000009488047094800471E
:10023000FEE7FEE7FEE7FEE7FEE7FEE7FEE7FEE796
:10024000FEE7FEE704480549054A064B70470000F3
:100250007D09000889010008680A00206810002054
:10026000680C0020680C0020704770477047754686
:1002700000F02CF8AE4605006946534620F0070012
:10028000854618B020B5FFF7DDFFBDE820404FF0F0
:1002900000064FF000074FF000084FF0000B21F070
:1002A0000701AC46ACE8C009ACE8C009ACE8C0093D
:1002B000ACE8C0098D46704710B50446AFF3008026
:1002C0002046BDE81040FFF7A8BF00000048704777
:1002D000040A00207047000001491820ABBEFEE769
:1002E0002600020021B1826842F00102826003E030
:1002F000826822F001028260704700000021084AF3
:100300001168084A1140D0E900231A4383681A4350
:10031000C3681A431143044AC2F80413704700002B
:1003200004230140E030FCFF0020014021B182683D
:1003300042F48072826003E0826822F480728260FC
:10034000704721B1826842F40072826003E08268E3
:1003500022F400728260704730B50246002000230C
:100360005068104C20400D790C6844EA0524204365
:10037000506090680C4C2040D1E903542C438D68A8
:100380002C434D7944EA450420439060D06A20F420
:1003900070000C7D641EE4B2234340EA0350D06237
:1003A00030BD0000FFFEFFFCFDF7FFC0F0B50446C6
:1003B0000D4600200021092D11DDE068A5F10A0697
:1003C00006EB4607072606FA07F18843A5F10A0659
:1003D00006EB460603FA06F10843E0600CE02069EC
:1003E00005EB4507072606FA07F1884305EB4506A6
:1003F00003FA06F108432061072A0FDA606B561EE4
:1004000006EB86071F2606FA07F18843561E06EB01
:10041000860605FA06F10843606322E00D2A0FDA2A
:10042000206BD61F06EB86071F2606FA07F18843C6
:10043000D61F06EB860605FA06F10843206310E096
:10044000E06AA2F10D0606EB86071F2606FA07F101
:100450008843A2F10D0606EB860605FA06F108436D
:10046000E062F0BD00BFFEE721B1026842F0010288
:10047000026003E0026822F001020260704700009F
:1004800010B500220268134B1A40CC680B68234356
:100490004C6923438C692343CC6923430C6A23436F
:1004A0004C6A23438C6A23434C6B23438C6B23435A
:1004B0001A430260426922F00702D1E90B34234358
:1004C0001A4342610B6943604B6883608B68C36069
:1004D00010BD00003F801CF07047F0B50A460021B7
:1004E0000023002400BF3DE0012505FA01F3156853
:1004F00005EA03049C4234D105684F000326BE4040
:10050000B543056015794E00B54006683543056072
:100510001579012D02D01579022D16D185684F006D
:100520000326BE40B543856055794E00B5408668C8
:1005300035438560456801268E40B5434560456872
:1005400096798E40B6B235434560C5684F000326A4
:10055000BE40B543C560D5794E00B540C668354349
:10056000C560491C1029BFD3F0BDF0B5002300249D
:100570004D07ED0E02FA05F3CE1000F1200555F8F7
:1005800026504E07F70E0F26BE40B543CF1000F1A0
:10059000200646F82750CE1000F1200555F82650C9
:1005A00045EA0304CE1000F1200545F82640F0BDD1
:1005B000418370470183704700BFFEE7024800682F
:1005C000012121EA1020704710080240024800680B
:1005D000012121EA502070471008024002480069BA
:1005E000012121EA1020704700000240014600204E
:1005F00031B1012909D002290CD0032914D10EE010
:100600000B4A1268C2F380300FE0094A1268C2F345
:1006100040300AE0074A1269C2F3401005E0054A7B
:100620001269C2F3C00000E000BF00BF70470000C5
:10063000101402400010024000BFFEE770470000A7
:1006400070B5002100230F22C4781CB3174C246816
:1006500004F4E064C4F5E064C4F30721C1F10404C8
:10066000E3B20A4144789C40E1B2847814402143CB
:100670000C07210E0E4C05786155047804F01F0517
:100680000124AC4005786D11AD0005F1E025C5F8F9
:10069000004109E0047804F01F050124AC40054D39
:1006A0000678761145F8264070BD00000CED00E09C
:1006B00000E400E080E100E07047000029B1064A54
:1006C00012680243044B1A6004E0034A1268824332
:1006D000014B1A60704700003038024029B1064AC9
:1006E00012680243044B1A6004E0034A1268824312
:1006F000014B1A60704700004038024029B1064A99
:1007000012680243044B1A6004E0034A12688243F1
:10071000014B1A60704700004438024029B1064A74
:1007200012680243044B1A6004E0034A12688243D1
:10073000014B1A607047000024380240F0B50021D8
:1007400000220024022500260223324F3F6807F0D2
:100750000C0121B1042905D0082937D105E02E4F1D
:10076000076036E02D4F076033E02A4F3F1F3F6898
:10077000C7F38056274F3F1F3F6807F03F036EB116
:10078000264FB7FBF3F7DFF88CC0ACF1040CDCF8B4
:1007900000C0CCF3881C07FB0CF40CE01E4FB7FB29
:1007A000F3F7DFF870C0ACF1040CDCF800C0CCF358
:1007B000881C07FB0CF4174F3F1F3F68C7F3014726
:1007C0007F1C7D00B4FBF5F7076002E0124F076065
:1007D00000BF00BF0F4F3F6807F0F0010909104F3D
:1007E0007A5C0768D74047600A4F3F6807F4E051DA
:1007F000890A0B4F7A5C4768D7408760054F3F688E
:1008000007F46041490B064F7A5C4768D740C760E0
:10081000F0BD0000083802400024F40000127A0005
:1008200014000020704700000CB5002001900090DB
:100830003448006840F480303249086000BF3148D5
:10084000006800F4003000900198401C019000986E
:1008500018B90198B0F5A04FF1D12A48006800F40A
:10086000003010B10120009001E0002000900098BD
:10087000012846D123484030006840F0805021498B
:10088000403108602048006840F440401E4908603C
:100890001C48083000681B49083108600846006899
:1008A00040F4004008600846006840F4A05008602A
:1008B0001648091F0860081F006840F08070091F73
:1008C000086000BF0F48006800F000700028F9D0F1
:1008D00040F205700E4908600A480830006820F0B0
:1008E00003000849083108600846006840F002002B
:1008F000086000BF03480830006800F00C000828BA
:10090000F8D10CBD00380240007000400854400788
:10091000003C024010B500F001F810BD10B50024F5
:100920001248006840B111480068401E0F49086035
:1009300010B901200E4908700E480068401C0D498E
:100940000860084600686FF00041884202D100202C
:1009500008490860002406E0074901EB041000F094
:1009600037FC601CC4B2052CF6DB10BD280000204B
:100970002C00002030000020A400002010B51548F5
:10098000006840F47000134908601348006840F0A4
:1009900001001149086000200F49083108600E4825
:1009A00000680E4908400C4908600D48091D0860A0
:1009B000081F006820F48020091F086000200649F5
:1009C0000C310860FFF730FF4FF0006001498039BB
:1009D000086010BD88ED00E000380240FFFFF6FE21
:1009E00010300024704770477047704721B102886B
:1009F00042F00102028004E002884FF6FE731A40C2
:100A00000280704731B1B0F8442042F40042A0F8AF
:100A1000442005E0B0F84420C2F30E02A0F84420C0
:100A20007047000070B5002400220023058C4FF6AB
:100A3000FE7635400584028C8388048B4FF68F75D3
:100A40002C40B51E2C400D882C43751E2A408D89E4
:100A50002A434D882A43104DA84202D00F4DA84288
:100A600013D14FF6F7752A40CD892A434FF6FB750F
:100A70002A408D882A434FF6FF652B404FF6FF55DD
:100A80002B400D8A2B434D8A2B43838004838D6832
:100A90004563028470BD0000000001400004014075
:100AA0000A460021018B4FF6F77319401143018369
:100AB0007047000070B5002400220023058C4FF61B
:100AC000EF7635400584028C8388048B48F6FF75E9
:100AD0002C404FF6FF452C400D884FF6FF7606EA76
:100AE00005252C434FF6DF752A408D8906EA05154A
:100AF0002A434D8806EA05152A43154DA84202D01F
:100B0000144DA8421DD14FF67F752A40CD894FF66E
:100B1000FF7606EA05152A434FF6BF752A408D88F1
:100B200006EA05152A434FF6FF352B404FF2FF75B5
:100B30002B400D8A06EA85052B434D8A06EA85057A
:100B40002B43838004838D688563028470BD00001D
:100B500000000140000401400A460021018B4FF2D1
:100B6000FF7319404FF6FF7303EA02231943018311
:100B7000704741637047816370470000002202881C
:100B8000184B98420ED0184B98420BD0B0F1804FC2
:100B900008D0164B984205D0154B984202D0154B01
:100BA000984204D14FF68F731A404B881A43124B68
:100BB000984207D0114B984204D04FF6FF431A4099
:100BC0000B891A4302804B68C3620B880385054B6F
:100BD000984202D0044B984201D18B7A03860123BC
:100BE000838270470000014000040140000400407F
:100BF00000080040000C00400010004000140040BD
:100C00004FF0FF31416000210180018141808172FC
:100C10007047000010B5024800F07CFB10BD0000DA
:100C2000F400002001F40072B2F5007F00D100BF93
:100C3000CA430280704721B1828942F40052828106
:100C400004E082894DF6FF731A408281704770B5C7
:100C50000246002400230025002040F66A16B14217
:100C600000D100BFC1F3421501F01F03012606FAAF
:100C700003F3012D02D19689334006E0022D02D103
:100C8000168A334001E0968A33400C12012606FA98
:100C900004F41688344013B10CB1012000E00020A8
:100CA00070BDF0B50346002400260025002040F664
:100CB0006A17B94200D100BF1846C1F3421401F0CF
:100CC0001F06012707FA06F5012C01D10C3004E0BC
:100CD000022C01D1103000E014301AB107682F4304
:100CE000076002E00768AF430760F0BD2DE9FF47EA
:100CF00005460E460024A14600BFA046B08900B1BB
:100D000000BF2C8A24F44054F08804432C82AC8920
:100D100041F20C608443B0883189084371890843EB
:100D20000443AC81AC8A24F44074B0890443AC829F
:100D30006846FFF703FD2048854202D01F488542E0
:100D400002D1DDF80C9001E0DDF80890A88900F4EC
:100D5000004040B109EBC90000EB091031684900BF
:100D6000B0FBF1F707E009EBC90000EB09103168AF
:100D70008900B0FBF1F76420B7FBF0F00401200913
:100D8000642101FB1078A88900F4004040B13220B2
:100D900000EBC800B0FBF1F000F00700044308E0EE
:100DA000322000EB08106421B0FBF1F000F00F00DE
:100DB00004432C81BDE8FF8700100140001401406E
:100DC00001468888C0F308007047C1F3080282809A
:100DD000704700BFFEE780F31088704710B500F041
:100DE000A9F901221421104600F012FA0949012044
:100DF00000F002FA01226421022000F009FA0649FB
:100E0000022000F0F9F900F009F800F0E3F800F032
:100E100023FA10BDAD0F00085D21000810B500F0E9
:100E20009BF800F063F810BD70B505462E4800EB46
:100E300005142068804700283AD02079012802DA7A
:100E4000012020714EE02079022803DA2079401C2D
:100E5000207147E0A07A38B90120A07205EB450166
:100E6000491CC8B200F036F9208900280DDDE08861
:100E7000401C80B2E0802189884233D105EB4501D6
:100E8000C91CC8B200F026F92CE0E07A002829DD60
:100E9000207B401CC0B22073E17A884222DB002014
:100EA000207305EB4501491CC8B200F013F919E0A5
:100EB0002079012802DD0120207110E0207918B18D
:100EC0002079401E20710AE0A07A012807D1002075
:100ED000A07205EB4501891CC8B200F0FBF80020A8
:100EE0002073E08070BD000074000020002000210D
:100EF000144A9172D1720121117300BF17E00A21C7
:100F0000114A02EB0012118100210F4A02EB00127C
:100F100011710D4A02EB001291720B4A02EB0012A2
:100F20001173094A02EB0012D172411CC8B20328A6
:100F3000E5DB0649044A1160054911610549116262
:100F4000704700006400002074000020DD050008E8
:100F5000CD050008BD0500081CB501210520FFF7DF
:100F6000ADFB00208DF804008DF8060001208DF8FF
:100F7000070003208DF805004FF48070009069464B
:100F80000848FFF7AAFA4FF4007000906946064837
:100F9000FFF7A3FA4FF48070009069460248FFF70C
:100FA0009CFA1CBD000002400008024010B500245D
:100FB0000748007B08B900BFFEE7002404E0204694
:100FC000FFF732FF601CC4B2032CF8DB10BD000039
:100FD0006400002010B500F007F8012001490870F6
:100FE00010BD0000240000201CB501215020FFF797
:100FF00065FB4FF48070009001208DF80400002004
:101000008DF8060003208DF8050001208DF80700FB
:1010100069461148FFF761FA8020009001208DF8A1
:10102000070069460C48FFF758FA0220009001209B
:101030008DF8070069460948FFF74FFA4FF48071B1
:101040000548FFF7B5FA80210348FFF7B1FA0221FE
:101050000248FFF7ADFA1CBD001002400018024024
:101060001949097801292DD120B1012809D0022878
:1010700015D10DE01549496981F48071134A516118
:101080001FE01249496981F08001104A516118E05E
:101090000F49096881F480710D4A116011E00B4914
:1010A000496981F48071094A51611146496981F0A9
:1010B000800151610649096881F00201044A11600A
:1010C00000BF00BF70470000240000200010024055
:1010D000141802400649C97A054A50541146C97A83
:1010E000491CC9B2D1720A2901DB0021D1727047B3
:1010F0006400002010B5044604B910BD012C00D1D5
:1011000002240120FFF767FE084804600020084918
:101110000870FFF760FE04E005480078012800D160
:1011200000E0F9E700BF00BFE7E70000280000206B
:101130002C00002070B5002000BF16E00021204ADE
:1011400002EB001251601E4A02EB001291601C4A31
:1011500002EB001251701A4A02EB00121170184A89
:1011600002EB0012D160411CC8B20528E6DB15492C
:1011700009684FF47A73B1FBF3F2511EB1F1807F2D
:1011800000D31BE0511E4FF0E023596159170F2384
:10119000002907DA1C07260E0B4C01F00F052D1F46
:1011A000665503E01C07250E084C655400BF00215E
:1011B0004FF0E02399610721196100BF70BD000065
:1011C000A40000200000002018ED00E000E400E092
:1011D00010B50446606870B16068401E606050B928
:1011E000012060702078012801D1A0686060E0686B
:1011F00008B1E068804710BD0246044B03EB0213C0
:10120000D868024B03EB0213D9607047A40000209A
:1012100070B504460D461646052C02DD4FF0FF3032
:1012200070BD0120FFF7D7FD0A4800EB04104560B0
:101230000020084901EB04114870064800EB041037
:101240000670044800EB041085600020FFF7C3FD22
:101250000020E5E7A400002010B500F0E1F800F060
:1012600003F800F0B7F810BD00B587B001210846BB
:10127000FFF724FA01211020FFF740FA0722092185
:101280002248FFF772F907220A212048FFF76DF97B
:1012900000208DF81A0001208DF81B0002208DF827
:1012A00018000002059002208DF8190005A91748C2
:1012B000FFF713F902208DF818004002059005A9E8
:1012C0001248FFF70AF94FF4165001900020ADF8CC
:1012D0000800ADF80A00ADF80C00ADF810000C20C5
:1012E000ADF80E0001A90A48FFF700FD012240F207
:1012F00025510748FFF7D5FC01210548FFF79BFC66
:1013000040210348FFF78EFC07B000BD00000240FB
:101310000010014070B5044640F225512068FFF7E7
:1013200096FC012807D12068FFF74AFDC5B229467F
:10133000204600F060F840F227712068FFF787FC34
:1013400008B3A08A60B9002240F227712068FFF735
:10135000A8FC012240F226612068FFF7A2FC38E0D9
:10136000638A6268D15C2068FFF72FFD608A401CA9
:1013700080B26082A189884201DB00206082A08A5D
:10138000401EA08225E040F226612068FFF75FFC46
:10139000F8B1A08A58B9002240F226612068FFF710
:1013A00080FC206AA8B10020216A884711E0638A86
:1013B0006268D15C2068FFF708FD608A401C80B23B
:1013C0006082A189884201DB00206082A08A401EE1
:1013D000A08270BD08B525208DF800000D208DF885
:1013E000010000208DF8020001208DF803006846FE
:1013F000FFF726F908BDC38A8268D154C28A521CFD
:1014000092B2C282C3899A4201DB0022C282428B1D
:10141000C3899A4202DA428B521C42837047000011
:1014200009480A4908600A4848600A4888604FF439
:101430008060C88188810020C882088348838882B0
:101440004862C8610862704700100140F400002043
:101450001C0100201C050020FFF7C0FC00F020F854
:1014600000F090FE14E00B48008A5021B1EBA00F71
:101470000CDD0120084908600849C1F884020649CA
:10148000091F08600549C1F8800201E000F010F86A
:10149000E9E7000060090020A482404200004242C7
:1014A00010B500F01DFE00F02FF900F057F910BD47
:1014B00010B500F009F80348407D08B900F0AEFA15
:1014C00010BD00001C09002010B57B48008AC8210F
:1014D000B1EBA00F1CDD0020FFF788F878B3774848
:1014E000407D60BB02207549487508464078012858
:1014F0000FD1022000F010FA71480078012807D0BF
:1015000070480068401C6F49086001206C490870F1
:10151000D0E0694840896E21B1EB201FF8DD022040
:1015200000F0FAF9664800780128F1D065480068B3
:10153000401C64490860012061490870BAE0FFE777
:101540000120FFF753F870B35C48407D58BB5B48FF
:101550004078012811D103205849487500F0DCF982
:10156000574800780128D3D056480068401C554998
:1015700008600120524908709CE04F4840896E2164
:10158000B1EB201FC4DD032000F0C6F94C48007801
:101590000128BDD04B480068401C4A490860012022
:1015A0004749087086E0FFE70220FFF71FF870B395
:1015B0004248407D58BB41484078012811D1042061
:1015C0003E49487500F0A8F93D480078012871D0DF
:1015D0003C480068401C3B490860012038490870BD
:1015E00068E0354800886E21B1EB201F62DD0420E1
:1015F00000F092F93248007801285BD03148006849
:10160000401C3049086001202D49087052E0FFE776
:101610000320FEF7EBFF70B32848407D58BB2748F6
:101620004078012811D105202449487500F074F94B
:101630002348007801283DD022480068401C2149F9
:10164000086001201E49087034E01B4800886E21A4
:10165000B1EB201F2EDD052000F05EF91848007860
:10166000012827D017480068401C1649086001204F
:10167000134908701EE0FFE7104800780F49887092
:1016800008460078C8700F48007800F0010020B9C3
:10169000C8204860A020886004E0A0200749486076
:1016A000C8208860002000F091F8002003494875A8
:1016B0000349087010BD0000600900201C090020CB
:1016C000510000205400002000200B49096801430C
:1016D000C8B20A49D1F8341240EA4101C8B20849F7
:1016E000096840EA8101C8B20649D1F8141240EAFB
:1016F000C101C8B2704700002C82414200804142C3
:101700000C024342000043421CB501214820FEF771
:10171000D5FF00208DF804002820009002208DF8CD
:10172000070003208DF8050069460A48FEF7D5FE3C
:101730004FF42050009069460748FEF7CEFE28215E
:101740000448FEF735FF4FF420510348FEF730FF01
:101750001CBD000000180240000C024010B500F053
:1017600005F800F04BF800F0A3F810BD1CB50121FE
:101770001220FEF7A3FF4FF44070009001208DF877
:10178000040000208DF8060001208DF807000320DA
:101790008DF8050069460B48FEF79FFE0320009078
:1017A00001208DF8040000208DF8060001208DF83E
:1017B000070003208DF8050069460348FEF78DFEFB
:1017C0001CBD0000000402400010024010B5044699
:1017D00000F08CFC074841680748FFF7CCF9054842
:1017E00081680548FFF7C5F9002C02DD2046FFF7A8
:1017F00081FC10BD1C0900200008004000B58BB022
:1018000001210220FEF75AFF01210420FEF766FFA6
:10181000022206212448FEF7A8FE022207212248C0
:10182000FEF7A3FEC020099002208DF828000020BA
:101830008DF82A0001208DF82B0003208DF8290057
:1018400009A91948FEF749FE0020ADF82000ADF8BF
:101850001A0040F2E73007900520ADF8180006A9FD
:101860001248FFF78BF97020ADF804000220ADF8A4
:1018700010000120ADF806003220039001A90B48AA
:10188000FFF7D0F801A90948FFF714F90821074824
:10189000FFF706F908210548FFF75EF90121034823
:1018A000FFF7A4F80BB000BD0004024000080040A0
:1018B00010B500240020174908708870C87048606F
:1018C0008860087548750873FFF7FEFE0446012C12
:1018D00002D0022C08D103E001200E49487007E035
:1018E00002200C49487003E001200A49487000BFFB
:1018F00000BF08484078012803D1C8200549086185
:1019000007E004484078022803D14FF4967001495B
:10191000086110BD1C09002010B50446022C06D039
:10192000032C20D0042C3AD0052C71D153E0012097
:10193000394908708870C87008464078022806D176
:101940007820486088606420FFF740FF0AE0324852
:101950004078012806D16E202F49486088606420B5
:10196000FFF734FF55E001202B4908708870C870DC
:1019700008464078022806D17820486088606420B4
:10198000FFF724FF0AE024484078012806D16E20A2
:101990002149486088606420FFF718FF39E0002083
:1019A0001D4908708870C87008464078022806D122
:1019B0007820486088606420FFF708FF0AE0164836
:1019C0004078012806D16E20134948608860642061
:1019D000FFF7FCFE1DE000200F4908708870C870FA
:1019E00008464078022806D1782048608860642044
:1019F000FFF7ECFE0AE008484078012806D16E2087
:101A00000549486088606420FFF7E0FE01E0FFE7D9
:101A100000BF00BF10BD00001C09002010B5F54834
:101A200040896E21B1EB201F01DA012000E0002087
:101A3000002877D00020F04908708870C8700846E8
:101A40004078012812D1EB48008ABE21B1EBA00FEB
:101A500004DB6420E849486088604EE0E64800699D
:101A6000E549486008460069886046E0E248007839
:101A700050B9E04840898221B1EB201F12DA0121E0
:101A8000022000F0B9FB0DE0DB480078012809D105
:101A9000D84800888221B1EB201F03DA01210420FD
:101AA00000F0AAFBD34840897821B1EB201F20DA4F
:101AB000D2480068401CD1490860084600680328E5
:101AC0001BD9CD484068B0F5617F04D2CA48406850
:101AD0003230C9494860C8488068B0F5617F04D297
:101AE000C54880683230C44988600020C349086016
:101AF00003E0C820C04948608860BE48008AC82109
:101B0000B1EBA00F1ADBBC484078012816D1BA48C7
:101B1000007840B90121022000F06EFB0120B64997
:101B200008730BE00EE0B4480078012806D10121CB
:101B3000042000F061FB0220AF490873C820FFF7C2
:101B400045FE56E1AB4800886E21B1EB201F01DA5B
:101B5000012000E0002000287DD00120A649087067
:101B60008870C87008464078012812D1A148008AC0
:101B7000B421B1EBA00F04DB64209F49486088606A
:101B80004EE09D4800699C494860084600698860AD
:101B900046E09948007850B9964840898221B1EBD7
:101BA000201F12DA0121032000F026FB0DE09248ED
:101BB0000078012809D18F4800888221B1EB201FCD
:101BC00003DA0121042000F017FB8A4800887821FD
:101BD000B1EB201F20DA89480068401C8749086063
:101BE0000846006804281BD983484068B0F5617F27
:101BF00004D28148406832307F4948607E4880681E
:101C0000B0F5617F04D27C48806832307A498860C0
:101C100000207A49086003E0C8207749486088605E
:101C20007448008AC821B1EBA00F41DB72484078AC
:101C3000022823D17048007870B9714800780128D3
:101C40000AD00121022000F0D7FA01206A49087366
:101C50006B4908702CE02FE067480078012827D1F5
:101C600067480078022823D00121042000F0C4FA3C
:101C70000220614908736249087019E05E484078A3
:101C8000012815D15C48007838B90121022000F004
:101C9000B3FA0120584908730AE057480078012830
:101CA00006D10121042000F0A7FA0220524908734E
:101CB000C820FFF78BFD9CE04E4800896E21B1EBF8
:101CC000201F01DA012000E0002068B100204A490D
:101CD0000870012088700020C870FA204860886071
:101CE0006420FFF773FD84E0424880896E21B1EBE8
:101CF000201F01DA012000E0002060B100203E49F1
:101D0000087088700120C870FA20486088606420DC
:101D1000FFF75CFD6DE03748C0886E21B1EB201FF6
:101D200001DA012000E0002068B10120324908708A
:101D3000002088700120C870FA2048608860642004
:101D4000FFF744FD55E02B4840886E21B1EB201F82
:101D500001DA012000E0002060B10120264908706E
:101D600088700020C870FA20486088606420FFF7FF
:101D70002DFD3EE01F4880886E21B1EB201F01DA67
:101D8000012000E0002070B100201B4908700120F4
:101D900088700020C8704FF4967048608860962064
:101DA000FFF714FD25E01348C0896E21B1EB201F19
:101DB00001DA012000E0002068B101200E4908701E
:101DC000002088700120C870FA2048608860642074
:101DD000FFF7FCFC0DE0084800780749C8708870E0
:101DE00000F084F90020044908730121084600F03E
:101DF00003FA10BD600900201C09002058000020D3
:101E00005000002000B58BB001210802FEF776FCDF
:101E1000002001904FF48030029000200490039045
:101E200001A8FEF76BFA01210802FEF777FC0021FA
:101E30004FF48070FEF772FC0020059001208DF8B1
:101E4000180000208DF8190009904FF0805007907D
:101E50000020089009208DF8280005A92348FEF7E6
:101E60007BFA0723012200212048FEF79FFA07236F
:101E7000022201211D48FEF799FA072303220221BD
:101E80001A48FEF793FA0723042203211748FEF7A6
:101E90008DFA0723052204211448FEF787FA072349
:101EA000062205211148FEF781FA07231A4606216A
:101EB0000E48FEF77BFA0723082219460B48FEF767
:101EC00075FA002309220E210848FEF76FFA012156
:101ED0000648FEF736FA01210448FEF727FA0121E9
:101EE0000248FEF7FFF90BB000BD000000200140E2
:101EF00000B58FB001218805FEF7E0FB00200090BF
:101F000009200490002003900B9001200C901048B1
:101F1000029000200D904FF400500890C0100690E1
:101F2000801009900B48019000200E904FF4003073
:101F30000A90801107900020059069460648FEF738
:101F40009FFA01210448FEF78FFA0FB000BD000090
:101F5000600900204C200140106402401CB50121A2
:101F60000720FEF7ABFB03208DF8040000208DF85E
:101F70000700FF20009069460448FEF7AEFA1020E3
:101F8000009069460248FEF7A8FA1CBD0000024016
:101F90000008024000B589B001210846FEF7AEFBFB
:101FA00000212648FEF722FD06A8FEF729FE0020A4
:101FB000ADF82000ADF81A0021482249097850F800
:101FC00031002149B1FBF0F0401E07901C481D492B
:101FD000097800EBC1008088401E80B2ADF818007F
:101FE00000208DF8220006A91448FEF7C7FD6020E6
:101FF000ADF804000120ADF806000220ADF8100095
:1020000003210798B0FBF1F003900420ADF808001D
:102010000020ADF81200ADF81400ADF8160001A9CB
:102020000648FEF7FFFC01210448FEF7DFFC012112
:102030000248FEF7E7FC09B000BD000000000140C7
:102040006422000860000020007A030A1CB5012108
:102050003620FEF733FB00208DF8040001208DF8B8
:10206000070003208DF805004FF48040009069467A
:102070001448FEF732FA4FF480411248FEF79AFAFC
:102080004FF40050009069460E48FEF726FA4FF4D0
:1020900000510C48FEF78EFA2020009069460A484D
:1020A000FEF71BFA20210848FEF784FA082000906A
:1020B00069460548FEF711FA08210348FEF77AFA47
:1020C0001CBD0000001402400010024010B5FFF7D4
:1020D00045FFFFF797FEFFF75DFFFFF709FF10BD14
:1020E00010B5FFF7F3FFFFF7B1FF10BD1848807878
:1020F00010B1012810D107E0002016490860012026
:102100001549C1F8840207E0012012490860002047
:102110001149C1F8840200BF00BF0D48C07810B15A
:10212000012812D108E001200A49091F0860002097
:102130000949C1F8800208E000200649091F08602B
:1021400001200549C1F8800200BF00BF70470000B0
:102150001C090020A48240420000424210B50848F9
:102160004078012803D10020FEF77AFF06E00448FA
:102170004078022802D10120FEF772FF10BD000056
:102180001C09002010B50120174908601749C1F843
:1021900080020121002000F02FF805E00420FEF766
:1021A0005FFF3220FEF7A6FF114880888221B1EB45
:1021B000201FF3DC0E48C089B1EB201FEEDC4FF48A
:1021C000AA700C4948604FF48C7088604FF44870D6
:1021D000FFF7FCFA4FF49670FFF7F8FA0121084672
:1021E00000F00AF810BD0000A08240420000424208
:1021F000600900201C09002070B505460C465520DA
:10220000084948700870052088700620C870084684
:1022100005714C71201288710721024800F004F802
:1022200070BD00007209002070B504460D460BE039
:1022300000BF0848008800F040000028F9D014F8DA
:10224000011B0448FEF7C1FD281EA5F10101CDB216
:10225000EED170BD001001404FF04070E1EE100A69
:102260007047000080B92A000100000080841E0031
:102270000100000040420F000100000020A1070003
:1022800001000000400D030001000000A0860100D5
:102290000100000050C3000001000000204E0000BB
:1022A000010000001027000001000000881300005A
:1022B00001000000A041000005000000A041000056
:1022C0000A000000A041000014000000A04100002E
:1022D00032000000A041000064000000A0410000A6
:1022E000C8000000A0410000F4010000A04100006F
:1022F000E8030000A0410000D0070000A04100005A
:1023000088130000A0410000102700002C230008C3
:102310000000002064000000C401000890230008B1
:102320006400002004100000E0010008007A030AA5
:102330000000000000000000010203040607080975
:10234000000000000102030401020304060708095B
:10235000000000000000000000000000000000007D
:10236000000000000000000000000000000000006D
:10237000000000000000000000000000000000005D
:10238000000000000000000000000000030000004A
:040000050800018965
:00000001FF
